{
    "_format": "hh-sol-artifact-1",
    "contractName": "WavePortal",
    "sourceName": "contracts/WavePortal.sol",
    "abi": [
        {
            "inputs": [],
            "stateMutability": "payable",
            "type": "constructor"
        },
        {
            "anonymous": false,
            "inputs": [
                {
                    "indexed": true,
                    "internalType": "address",
                    "name": "from",
                    "type": "address"
                },
                {
                    "indexed": false,
                    "internalType": "uint256",
                    "name": "timestamp",
                    "type": "uint256"
                },
                {
                    "indexed": false,
                    "internalType": "string",
                    "name": "message",
                    "type": "string"
                }
            ],
            "name": "NewWave",
            "type": "event"
        },
        {
            "inputs": [
                {
                    "internalType": "string",
                    "name": "_link",
                    "type": "string"
                }
            ],
            "name": "dropLink",
            "outputs": [],
            "stateMutability": "nonpayable",
            "type": "function"
        },
        {
            "inputs": [],
            "name": "getAllWaves",
            "outputs": [
                {
                    "components": [
                        {
                            "internalType": "address",
                            "name": "waver",
                            "type": "address"
                        },
                        {
                            "internalType": "string",
                            "name": "message",
                            "type": "string"
                        },
                        {
                            "internalType": "uint256",
                            "name": "timestamp",
                            "type": "uint256"
                        }
                    ],
                    "internalType": "struct WavePortal.Wave[]",
                    "name": "",
                    "type": "tuple[]"
                }
            ],
            "stateMutability": "view",
            "type": "function"
        },
        {
            "inputs": [],
            "name": "getTotalWaves",
            "outputs": [
                {
                    "internalType": "uint256",
                    "name": "",
                    "type": "uint256"
                }
            ],
            "stateMutability": "view",
            "type": "function"
        },
        {
            "inputs": [
                {
                    "internalType": "address",
                    "name": "",
                    "type": "address"
                }
            ],
            "name": "lastWavedAt",
            "outputs": [
                {
                    "internalType": "uint256",
                    "name": "",
                    "type": "uint256"
                }
            ],
            "stateMutability": "view",
            "type": "function"
        },
        {
            "inputs": [],
            "name": "linkCount",
            "outputs": [
                {
                    "internalType": "uint256",
                    "name": "",
                    "type": "uint256"
                }
            ],
            "stateMutability": "view",
            "type": "function"
        },
        {
            "inputs": [
                {
                    "internalType": "uint256",
                    "name": "",
                    "type": "uint256"
                }
            ],
            "name": "linkDetails",
            "outputs": [
                {
                    "internalType": "address",
                    "name": "user",
                    "type": "address"
                },
                {
                    "internalType": "string",
                    "name": "linkText",
                    "type": "string"
                }
            ],
            "stateMutability": "view",
            "type": "function"
        },
        {
            "inputs": [
                {
                    "internalType": "string",
                    "name": "_message",
                    "type": "string"
                }
            ],
            "name": "wave",
            "outputs": [],
            "stateMutability": "nonpayable",
            "type": "function"
        }
    ],
    "bytecode": "0x60806040526200004f6040518060400160405280601b81526020017f4920414d204120534d41525420434f4e54524143542e20504f472e00000000008152506200007760201b6200091d1760201c565b606444426200005f9190620001c4565b6200006b919062000261565b60048190555062000308565b62000117816040516024016200008e919062000184565b6040516020818303038152906040527f41304fac000000000000000000000000000000000000000000000000000000007bffffffffffffffffffffffffffffffffffffffffffffffffffffffff19166020820180517bffffffffffffffffffffffffffffffffffffffffffffffffffffffff83818316178352505050506200011a60201b60201c565b50565b60008151905060006a636f6e736f6c652e6c6f679050602083016000808483855afa5050505050565b60006200015082620001a8565b6200015c8185620001b3565b93506200016e8185602086016200022b565b6200017981620002f7565b840191505092915050565b60006020820190508181036000830152620001a0818462000143565b905092915050565b600081519050919050565b600082825260208201905092915050565b6000620001d18262000221565b9150620001de8362000221565b9250827fffffffffffffffffffffffffffffffffffffffffffffffffffffffffffffffff0382111562000216576200021562000299565b5b828201905092915050565b6000819050919050565b60005b838110156200024b5780820151818401526020810190506200022e565b838111156200025b576000848401525b50505050565b60006200026e8262000221565b91506200027b8362000221565b9250826200028e576200028d620002c8565b5b828206905092915050565b7f4e487b7100000000000000000000000000000000000000000000000000000000600052601160045260246000fd5b7f4e487b7100000000000000000000000000000000000000000000000000000000600052601260045260246000fd5b6000601f19601f8301169050919050565b6116d680620003186000396000f3fe608060405234801561001057600080fd5b506004361061007d5760003560e01c8063aac476791161005b578063aac47679146100ec578063ae2024b31461010a578063bd43a9081461013b578063f23df2c6146101595761007d565b8063449d46c0146100825780639a2cdc081461009e578063a42a4663146100bc575b600080fd5b61009c60048036038101906100979190610db0565b610175565b005b6100a6610571565b6040516100b391906111f2565b60405180910390f35b6100d660048036038101906100d19190610d87565b6105bc565b6040516100e391906111f2565b60405180910390f35b6100f46105d4565b60405161010191906111f2565b60405180910390f35b610124600480360381019061011f9190610df1565b6105da565b604051610132929190611042565b60405180910390f35b6101436106b6565b6040516101509190611072565b60405180910390f35b610173600480360381019061016e9190610db0565b610807565b005b42600f600560003373ffffffffffffffffffffffffffffffffffffffff1673ffffffffffffffffffffffffffffffffffffffff168152602001908152602001600020546101c29190611304565b10610202576040517f08c379a00000000000000000000000000000000000000000000000000000000081526004016101f9906111d2565b60405180910390fd5b42600560003373ffffffffffffffffffffffffffffffffffffffff1673ffffffffffffffffffffffffffffffffffffffff168152602001908152602001600020819055506001600360008282546102599190611304565b925050819055506102a06040518060400160405280601681526020017f257320776176656420772f206d6573736167652025730000000000000000000081525033836109b6565b600160405180606001604052803373ffffffffffffffffffffffffffffffffffffffff16815260200183815260200142815250908060018154018082558091505060019003906000526020600020906003020160009091909190915060008201518160000160006101000a81548173ffffffffffffffffffffffffffffffffffffffff021916908373ffffffffffffffffffffffffffffffffffffffff160217905550602082015181600101908051906020019061035f929190610c52565b506040820151816002015550506064600454424461037d9190611304565b6103879190611304565b6103919190611484565b6004819055506103d86040518060400160405280601781526020017f52616e646f6d20232067656e6572617465643a2025643a000000000000000000815250600454610a55565b60326004541161051e576104216040518060400160405280600781526020017f257320776f6e210000000000000000000000000000000000000000000000000081525033610af1565b6000655af3107a400090504781111561046f576040517f08c379a000000000000000000000000000000000000000000000000000000000815260040161046690611192565b60405180910390fd5b60003373ffffffffffffffffffffffffffffffffffffffff16826040516104959061102d565b60006040518083038185875af1925050503d80600081146104d2576040519150601f19603f3d011682016040523d82523d6000602084013e6104d7565b606091505b505090508061051b576040517f08c379a0000000000000000000000000000000000000000000000000000000008152600401610512906111b2565b60405180910390fd5b50505b3373ffffffffffffffffffffffffffffffffffffffff167f5f7e16dc676677766a70e9c5628aa6c54ddb8b6e5188e2ae1e1f17f1ffbea716428360405161056692919061120d565b60405180910390a250565b60006105b46040518060400160405280601781526020017f5765206861766520256420746f74616c20776176657321000000000000000000815250600354610a55565b600354905090565b60056020528060005260406000206000915090505481565b60025481565b600081815481106105ea57600080fd5b90600052602060002090600202016000915090508060000160009054906101000a900473ffffffffffffffffffffffffffffffffffffffff1690806001018054610633906113d8565b80601f016020809104026020016040519081016040528092919081815260200182805461065f906113d8565b80156106ac5780601f10610681576101008083540402835291602001916106ac565b820191906000526020600020905b81548152906001019060200180831161068f57829003601f168201915b5050505050905082565b60606001805480602002602001604051908101604052809291908181526020016000905b828210156107fe57838290600052602060002090600302016040518060600160405290816000820160009054906101000a900473ffffffffffffffffffffffffffffffffffffffff1673ffffffffffffffffffffffffffffffffffffffff1673ffffffffffffffffffffffffffffffffffffffff168152602001600182018054610763906113d8565b80601f016020809104026020016040519081016040528092919081815260200182805461078f906113d8565b80156107dc5780601f106107b1576101008083540402835291602001916107dc565b820191906000526020600020905b8154815290600101906020018083116107bf57829003601f168201915b50505050508152602001600282015481525050815260200190600101906106da565b50505050905090565b600060405180604001604052803373ffffffffffffffffffffffffffffffffffffffff16815260200183815250908060018154018082558091505060019003906000526020600020906002020160009091909190915060008201518160000160006101000a81548173ffffffffffffffffffffffffffffffffffffffff021916908373ffffffffffffffffffffffffffffffffffffffff16021790555060208201518160010190805190602001906108c0929190610c52565b505050600260008154809291906108d69061143b565b919050555061091a6040518060400160405280601b81526020017f4e6577204c696e6b20686173206265656e207375626d6974746564000000000081525082610b8d565b50565b6109b3816040516024016109319190611094565b6040516020818303038152906040527f41304fac000000000000000000000000000000000000000000000000000000007bffffffffffffffffffffffffffffffffffffffffffffffffffffffff19166020820180517bffffffffffffffffffffffffffffffffffffffffffffffffffffffff8381831617835250505050610c29565b50565b610a508383836040516024016109ce939291906110e6565b6040516020818303038152906040527fe0e9ad4f000000000000000000000000000000000000000000000000000000007bffffffffffffffffffffffffffffffffffffffffffffffffffffffff19166020820180517bffffffffffffffffffffffffffffffffffffffffffffffffffffffff8381831617835250505050610c29565b505050565b610aed8282604051602401610a6b929190611162565b6040516020818303038152906040527f9710a9d0000000000000000000000000000000000000000000000000000000007bffffffffffffffffffffffffffffffffffffffffffffffffffffffff19166020820180517bffffffffffffffffffffffffffffffffffffffffffffffffffffffff8381831617835250505050610c29565b5050565b610b898282604051602401610b079291906110b6565b6040516020818303038152906040527f319af333000000000000000000000000000000000000000000000000000000007bffffffffffffffffffffffffffffffffffffffffffffffffffffffff19166020820180517bffffffffffffffffffffffffffffffffffffffffffffffffffffffff8381831617835250505050610c29565b5050565b610c258282604051602401610ba392919061112b565b6040516020818303038152906040527f4b5c4277000000000000000000000000000000000000000000000000000000007bffffffffffffffffffffffffffffffffffffffffffffffffffffffff19166020820180517bffffffffffffffffffffffffffffffffffffffffffffffffffffffff8381831617835250505050610c29565b5050565b60008151905060006a636f6e736f6c652e6c6f679050602083016000808483855afa5050505050565b828054610c5e906113d8565b90600052602060002090601f016020900481019282610c805760008555610cc7565b82601f10610c9957805160ff1916838001178555610cc7565b82800160010185558215610cc7579182015b82811115610cc6578251825591602001919060010190610cab565b5b509050610cd49190610cd8565b5090565b5b80821115610cf1576000816000905550600101610cd9565b5090565b6000610d08610d0384611262565b61123d565b905082815260208101848484011115610d2057600080fd5b610d2b848285611396565b509392505050565b600081359050610d4281611672565b92915050565b600082601f830112610d5957600080fd5b8135610d69848260208601610cf5565b91505092915050565b600081359050610d8181611689565b92915050565b600060208284031215610d9957600080fd5b6000610da784828501610d33565b91505092915050565b600060208284031215610dc257600080fd5b600082013567ffffffffffffffff811115610ddc57600080fd5b610de884828501610d48565b91505092915050565b600060208284031215610e0357600080fd5b6000610e1184828501610d72565b91505092915050565b6000610e268383610fbf565b905092915050565b610e378161135a565b82525050565b610e468161135a565b82525050565b6000610e57826112a3565b610e6181856112c6565b935083602082028501610e7385611293565b8060005b85811015610eaf5784840389528151610e908582610e1a565b9450610e9b836112b9565b925060208a01995050600181019050610e77565b50829750879550505050505092915050565b6000610ecc826112ae565b610ed681856112e2565b9350610ee68185602086016113a5565b610eef81611571565b840191505092915050565b6000610f05826112ae565b610f0f81856112f3565b9350610f1f8185602086016113a5565b610f2881611571565b840191505092915050565b6000610f406034836112f3565b9150610f4b82611582565b604082019050919050565b6000610f636027836112f3565b9150610f6e826115d1565b604082019050919050565b6000610f866028836112f3565b9150610f9182611620565b604082019050919050565b6000610fa96000836112d7565b9150610fb48261166f565b600082019050919050565b6000606083016000830151610fd76000860182610e2e565b5060208301518482036020860152610fef8282610ec1565b9150506040830151611004604086018261100f565b508091505092915050565b6110188161138c565b82525050565b6110278161138c565b82525050565b600061103882610f9c565b9150819050919050565b60006040820190506110576000830185610e3d565b81810360208301526110698184610efa565b90509392505050565b6000602082019050818103600083015261108c8184610e4c565b905092915050565b600060208201905081810360008301526110ae8184610efa565b905092915050565b600060408201905081810360008301526110d08185610efa565b90506110df6020830184610e3d565b9392505050565b600060608201905081810360008301526111008186610efa565b905061110f6020830185610e3d565b81810360408301526111218184610efa565b9050949350505050565b600060408201905081810360008301526111458185610efa565b905081810360208301526111598184610efa565b90509392505050565b6000604082019050818103600083015261117c8185610efa565b905061118b602083018461101e565b9392505050565b600060208201905081810360008301526111ab81610f33565b9050919050565b600060208201905081810360008301526111cb81610f56565b9050919050565b600060208201905081810360008301526111eb81610f79565b9050919050565b6000602082019050611207600083018461101e565b92915050565b6000604082019050611222600083018561101e565b81810360208301526112348184610efa565b90509392505050565b6000611247611258565b9050611253828261140a565b919050565b6000604051905090565b600067ffffffffffffffff82111561127d5761127c611542565b5b61128682611571565b9050602081019050919050565b6000819050602082019050919050565b600081519050919050565b600081519050919050565b6000602082019050919050565b600082825260208201905092915050565b600081905092915050565b600082825260208201905092915050565b600082825260208201905092915050565b600061130f8261138c565b915061131a8361138c565b9250827fffffffffffffffffffffffffffffffffffffffffffffffffffffffffffffffff0382111561134f5761134e6114b5565b5b828201905092915050565b60006113658261136c565b9050919050565b600073ffffffffffffffffffffffffffffffffffffffff82169050919050565b6000819050919050565b82818337600083830152505050565b60005b838110156113c35780820151818401526020810190506113a8565b838111156113d2576000848401525b50505050565b600060028204905060018216806113f057607f821691505b6020821081141561140457611403611513565b5b50919050565b61141382611571565b810181811067ffffffffffffffff8211171561143257611431611542565b5b80604052505050565b60006114468261138c565b91507fffffffffffffffffffffffffffffffffffffffffffffffffffffffffffffffff821415611479576114786114b5565b5b600182019050919050565b600061148f8261138c565b915061149a8361138c565b9250826114aa576114a96114e4565b5b828206905092915050565b7f4e487b7100000000000000000000000000000000000000000000000000000000600052601160045260246000fd5b7f4e487b7100000000000000000000000000000000000000000000000000000000600052601260045260246000fd5b7f4e487b7100000000000000000000000000000000000000000000000000000000600052602260045260246000fd5b7f4e487b7100000000000000000000000000000000000000000000000000000000600052604160045260246000fd5b6000601f19601f8301169050919050565b7f547279696e6720746f207769746864726177206d6f7265206d6f6e657920746860008201527f616e2074686520636f6e7472616374206861732e000000000000000000000000602082015250565b7f4661696c656420746f207769746864726177206d6f6e65792066726f6d20636f60008201527f6e74726163742e00000000000000000000000000000000000000000000000000602082015250565b7f4d7573742077616974203135207365636f6e64732062656f726520776176696e60008201527f6720616761696e2e000000000000000000000000000000000000000000000000602082015250565b50565b61167b8161135a565b811461168657600080fd5b50565b6116928161138c565b811461169d57600080fd5b5056fea26469706673582212207cea0f2973435077a7442a098a4d4c441f09006506adc5ccaa64334c0d2b801864736f6c63430008040033",
    "linkReferences": {},
    "deployedLinkReferences": {}
}